:020000040800F2
:1000000000000220B11100088111000883110008CE
:100010008511000887110008891100080000000000
:100020000000000000000000000000008B1100082C
:100030008D110008000000008F11000891110008C8
:100040000112000801120008011200080112000844
:100050000112000801120008011200080112000834
:100060000112000801120008011200080112000824
:100070000112000801120008011200080112000814
:100080000112000801120008011200080112000804
:1000900001120008011200080112000801120008F4
:1000A00001120008011200080112000801120008E4
:1000B00001120008011200080112000801120008D4
:1000C00001120008011200080112000801120008C4
:1000D00001120008011200080112000801120008B4
:1000E00001120008011200080112000801120008A4
:1000F0000112000801120008011200080112000894
:100100000112000801120008011200080112000883
:100110000112000801120008011200080112000873
:100120000112000801120008011200080112000863
:100130000112000801120008011200080112000853
:100140000112000801120008011200080112000843
:100150000112000801120008011200080112000833
:100160000112000801120008011200080112000823
:10017000011200080112000801120008000000002E
:08018000011200080112000841
:1001880010B5054C237833B9044B13B10448AFF3C9
:1001980000800123237010BD0C0000200000000027
:1001A8005C12000808B5034B1BB103490348AFF3C1
:1001B800008008BD00000000100000205C1200084C
:1001C80053B94AB9002908BF00281CBF4FF0FF31B6
:1001D8004FF0FF3000F07AB9ADF1080C6DE904CEAC
:1001E80000F006F8DDF804E0DDE9022304B070470A
:1001F8002DE9F0478C460D460446089E002B51D148
:100208008A4217466DD9B2FA82FEBEF1000F0BD0B2
:10021800CEF1200C01FA0EF520FA0CFC02FA0EF7CA
:100228004CEA050C00FA0EF44FEA174A250CBCFB01
:10023800FAF81FFA87F90AFB18CC45EA0C4508FBBF
:1002480009F3AB420AD9ED1908F1FF3280F0238196
:10025800AB4240F22081A8F102083D44ED1AA4B255
:10026800B5FBFAF00AFB105544EA054400FB09F90E
:10027800A14509D9E41900F1FF3380F00A81A145AD
:1002880040F2078102383C44A4EB090440EA0840E4
:100298000021002E61D024FA0EF40023346073602C
:1002A800BDE8F0878B4207D9002E54D0002186E89C
:1002B80021000846BDE8F087B3FA83F1002940F031
:1002C8008E80AB4202D3824200F2FA80841A65EB38
:1002D80003050120AC46002E3FD086E81010BDE88B
:1002E800F08712B90127B7FBF2F7B7FA87FEBEF11C
:1002F800000F34D1EB1B3A0C1FFA87FC0121B3FB2A
:10030800F2F8250C02FB183345EA03450CFB08F309
:10031800AB4207D9ED1908F1FF3002D2AB4200F227
:10032800D1808046ED1AA3B2B5FBF2F002FB10555E
:1003380043EA05440CFB00FCA44507D9E41900F185
:10034800FF3302D2A44500F2B8801846A4EB0C048F
:1003580040EA08409DE731463046BDE8F087CEF1D7
:10036800200405FA0EF307FA0EF720FA04F83A0CFF
:1003780025FA04F448EA0308B4FBF2F14FEA1845F9
:1003880002FB11441FFA87FC45EA044501FB0CF304
:10039800AB4200FA0EF409D9ED1901F1FF3080F0F3
:1003A8008A80AB4240F2878002393D44EB1A1FFA3B
:1003B80088F5B3FBF2F002FB103345EA034500FB76
:1003C8000CF3AB4207D9ED1900F1FF386FD2AB42FD
:1003D8006DD902383D44EB1A40EA01418FE7C1F17B
:1003E800200722FA07F88B4005FA01F448EA0303CC
:1003F80020FA07FE4FEA134CFD404EEA040EB5FB07
:10040800FCF94FEA1E440CFB19551FFA83F844EA1D
:10041800054509FB08F4AC4202FA01F200FA01FAB8
:1004280008D9ED1809F1FF3043D2AC4241D9A9F1FE
:1004380002091D442D1B1FFA8EFEB5FBFCF00CFBB8
:1004480010554EEA054400FB08F8A04507D9E41802
:1004580000F1FF3529D2A04527D902381C4440EACB
:100468000940A4EB0804A0FB02894C45C6464D464A
:1004780015D312D056B1BAEB0E0364EB050404FA97
:1004880007F7CB401F43CC40376074600021BDE8BC
:10049800F0871846F8E69046E0E6C245EAD2B8EB9F
:1004A800020E69EB03050138E4E72846D7E7404622
:1004B80091E78146BEE7014678E702383C4445E7C4
:1004C800084608E7A8F102083D442BE7704700BF3B
:1004D80038B50E4A0E4B054618784FF47A73B3FBBD
:1004E800F0F31068B0FBF3F000F088F8044658B950
:1004F8000F2D09D8024629464FF0FF3000F04AF880
:10050800044B20461D6038BD012038BD080000207E
:10051800000000200400002008B50B4B1A6842F4C4
:1005280000721A601A6842F480621A601A6842F40B
:1005380080721A60032000F01BF80020FFF7C8FF44
:1005480000F0CEFD002008BD003C0240034A044BE9
:1005580011681B780B441360704700BF2800002007
:1005680000000020014B1868704700BF28000020D9
:10057800074AD36823F4E0631B041B0C43F0BF63F2
:10058800000243F4003300F4E0600343D360704793
:1005980000ED00E0174B30B5DC68C4F30224C4F169
:1005A8000703251D042B28BF0423062D4FF0010542
:1005B80005FA03F303F1FF338CBF033C0024194011
:1005C800A14005FA04F4013C2240002842EA010255
:1005D8004FEA0212ADBF00F1604000F00F00064B79
:1005E80000F56140B5BFD2B2D2B21A5480F80023E8
:1005F80030BD00BF00ED00E014ED00E00138B0F1BF
:10060800807F0AD2064B074A5860F02182F82310EF
:100618000020072298601A6070470120704700BFC9
:1006280010E000E000ED00E02DE9F04F85B00B6828
:10063800DFF8AC81684ADFF8AC910193002301240C
:10064800019D9C402540AC4240F0B0804C6824F0AD
:10065800100C0CF1FF36012E4FEA430E12D88768B2
:10066800032606FA0EF627EA0607CE6806FA0EF6FD
:100678003E4386604768C4F3001627EA05079E4094
:100688003E4346600326C76806FA0EF6F64307EAB5
:10069800060A8F6807FA0EF747EA0A07BCF1020F45
:1006A800C76016D14FEAD30A00EB8A0A03F0070B9A
:1006B800DAF820704FEA8B0B4FF00F0C0CFA0BFC9A
:1006C80027EA0C0C0F6907FA0BF747EA0C07CAF878
:1006D800207007683E4004F0030707FA0EFE4EEA52
:1006E80006060660E60061D54FF0000BCDF80CB0A9
:1006F800D8F84470394E47F48047C8F84470D8F8A1
:10070800447007F480470397039F23F0030707F11A
:10071800804707F59C3703F0030CD7F808A04FEA89
:100728008C0C4FF00F0E0EFA0CFEB0422AEA0E0E99
:1007380043D006F58066B04241D006F58066B042E7
:100748003FD006F58066B0423DD006F58066B042DF
:100758003BD048453BD006F50066B04239D006F597
:100768008066B04214BF0826072606FA0CF646EA49
:100778000E06BE601668EF4314F4803F0CBF3E407F
:100788002E431660566814F4003F0CBF3E402E43BB
:100798005660966814F4801F0CBF3E402E43966046
:1007A800D668A40254BF3E402E43D6600133102BB6
:1007B8007FF445AF05B0BDE8F08F5E46D5E701266A
:1007C800D3E70226D1E70326CFE70426CDE705269F
:1007D800CBE70626C9E700BF003C01400000024005
:1007E80000380240001402400AB1816170470904D0
:1007F800FBE700002DE9F341044608B901203FE07A
:100808000368DD0710D4236898075AD423681A07A9
:1008180000F19C8023685B0700F1BA80A06900287A
:1008280040F01B8100202BE0A44B9A6802F00C02D8
:10083800042A07D09A6802F00C02082A0AD15B68D9
:10084800590207D59D4B1B689A03DCD56368002BBA
:10085800D9D1D3E76368994DB3F5803F13D12B689D
:1008680043F480332B60FFF77DFE944D06462B68DA
:100878009B03C8D4FFF776FE801B6428F7D90320B2
:1008880002B0BDE8F081B3F5A02F04D12B6843F482
:1008980080232B60E3E72A6822F480322A602A68E2
:1008A80022F480222A60002BDDD1FFF75BFE06468A
:1008B8002B689F03A7D5FFF755FE801B6428F7D93F
:1008C800DDE77E4B9A6812F00C0F07D09A6802F0A9
:1008D8000C02082A11D15B685E020ED4774B1A68A5
:1008E800950702D5E268012A88D11A68216922F0A1
:1008F800F80242EAC1021A6088E7E268704BB2B1B6
:1009080001221A60FFF72EFE6C4D06462B689807E9
:1009180007D52B68226923F0F80343EAC2032B604A
:1009280074E7FFF71FFE801B0228EFD9A7E71A60BC
:10093800FFF718FE614D06462B6899077FF566AFED
:10094800FFF710FE801B0228F6D998E762695D4B15
:100958007AB101221A60FFF705FE584D06466B6F03
:100968009F073FF557AFFFF7FDFD801B0228F6D91B
:1009780085E71A60FFF7F6FD504D06466B6F98073E
:100988007FF548AFFFF7EEFD801B0228F6D976E722
:100998004A4B1A6C12F0805228D101921A6C42F01C
:1009A80080521A641B6C03F080530193019B01264B
:1009B800454D2B68D9051BD5A368404D012B27D180
:1009C8002B6F43F001032B67FFF7CCFD3B4D074628
:1009D80041F288382B6F9B0739D5002E3FF41EAFA4
:1009E800364A136C23F08053136417E70026DFE7B9
:1009F8002B6843F480732B60FFF7B4FD07462B6820
:100A0800DA05D9D4FFF7AEFDC01B0228F7D936E7BF
:100A1800052B04D12B6F43F004032B67D0E72A6F13
:100A280022F001022A672A6F22F004022A67002BAB
:100A3800CAD1FFF797FD41F2883807462B6F980710
:100A4800CBD5FFF78FFDC01B4045F7D917E7FFF758
:100A580089FDC01B4045BDD911E7184DAB6803F0AF
:100A68000C03082B47D0194E00230228336035D1D8
:100A7800FFF778FD07462B68990129D4226AE369B4
:100A88001343626A43EA8213E26A43EA0263A26A90
:100A98000A4C5208013A43EA02436B60012333606F
:100AA800FFF760FD054623689A013FF5BBAEFFF7E7
:100AB80059FD401B0228F6D9E1E600BF0038024084
:100AC80000004742800E47420070004060004742E5
:100AD800FFF748FDC01B0228CDD9D0E6FFF742FD3D
:100AE80004462B689B017FF59DAEFFF73BFD001B7D
:100AF8000228F6D9C3E601283FF4C2AEA868E36924
:100B080000F480029A427FF479AE226A00F03F0333
:100B180093427FF473AE626A47F6C0730340934210
:100B28007FF46CAEA26A00F4403393427FF466AE61
:100B3800E36A00F07060C01A18BF0120A0E600BF89
:100B4800134908B58B6803F00C03042B03D0082B5A
:100B580003D0104808BD104808BD4A684B6849686A
:100B680013F4800314BF0C480A48C1F3881118BF56
:100B7800002302F03F02A1FB0001FFF721FB044B19
:100B88005B68C3F3014301335B00B0FBF3F008BDBE
:100B9800003802400024F40040787D012DE9F0413E
:100BA8000D46044610B90120BDE8F081444B1A688F
:100BB80002F00F028A4229D321688F072ED4C80772
:100BC80041D43F4B1A6802F00F02954267D322685E
:100BD80051076DD4130707D53A4A2169936823F45E
:100BE800604343EAC1039360FFF7AAFF354B364AD7
:100BF8009B68C3F30313D35CD840344B1860344B61
:100C08001868FFF765FC0020BDE8F081CAB21A70C9
:100C18001B6803F00F039942C5D1CDE7294B11F0AA
:100C2800040F1EBF9A6842F4E0529A600E0742BF52
:100C38009A6842F460429A609A68A06822F0F002CA
:100C480002439A60BBE762681E4B012A1DD11B68EC
:100C580013F4003FA7D01B4EB36823F003031343DC
:100C6800B360FFF77FFC41F288380746B3686268D3
:100C780003F00C03B3EB820FA3D0FFF773FCC01B88
:100C88004045F3D90320BDE8F081911E01291B6876
:100C980002D813F0007FDDE713F0020FDAE7EAB2BB
:100CA8001A701B6803F00F039D427FF47CAF8EE738
:100CB8000449E0688B6823F4E05303438B6089E7B9
:100CC800003C02400038024074120008080000206E
:100CD80004000020022380F83D3003689A6802F07F
:100CE8000702062A1EBF1A6842F001021A60012391
:100CF80080F83D3000207047304A0368904212D097
:100D0800B0F1804F0FD0A2F57C4290420BD002F593
:100D18008062904207D002F58062904203D002F5CB
:100D28007842904219D14A6823F070031343234A4A
:100D3800904229D0B0F1804F26D0A2F57C42904253
:100D480022D002F5806290421ED002F58062904265
:100D58001AD002F57842904216D0194A904213D020
:100D680002F5806290420FD002F5806290420BD06B
:100D7800A2F59832904207D002F58062904203D0E3
:100D880002F58062904203D1CA6823F4407313438A
:100D98004A6923F08003134303608B68C3620B68BE
:100DA8008362064B984203D003F58063984201D1D1
:100DB8000B69036301234361704700BF00000140D2
:100DC8000040014010B50446A0B190F83D3003F052
:100DD800FF021BB980F83C2000F09EF9022384F83A
:100DE8003D302068211DFFF787FF012384F83D303F
:100DF800002010BD012010BD10B584680A4324F4FA
:100E08007F4442EA03232343836010BD00684A6895
:100E180038B583680C6823F07003134323F0070385
:100E28002343502A83601ED003D8402A0BD00020C9
:100E380038BD602A27D0702AF9D10B698A68C96839
:100E4800FFF7DAFFF3E7052C30D0026A036A096975
:100E580023F001030362836923F0F00343EA0113DB
:100E680083610262E3E78A680D69016A046A24F013
:100E780001040462836921F00A0123F0F00343EAC4
:100E880005130A43ECE78C680D69016A21F010012B
:100E980001628269036A22F4704223F0A00342EAE5
:100EA800053243EA041382610362C0E7012038BDBA
:100EB80038B590F83C30012B04464FF002031CD0A3
:100EC800012580F83C5080F83D30FFF79FFF30B196
:100ED800002384F83D5084F83C30284638BD236808
:100EE800DA6822F04002DA60DA6822F48042DA60D6
:100EF80084F83D5084F83C0038BD184638BD0000E1
:100F080090F83C30012B30B54FF0020335D080F813
:100F18003D3003680D685C6824F0700401222C439E
:100F280080F83C209A685C60154CA3421AD0B3F153
:100F3800804F17D0A4F57C44A34213D004F58064F5
:100F4800A3420FD004F58064A3420BD004F5784483
:100F5800A34207D004F57054A34203D0A4F59434F7
:100F6800A34204D1496822F080020A439A6001230F
:100F780080F83D30002380F83C30184630BD00BF73
:100F88000000014030B595B03022002108A800F0DB
:100F980059F90021142203A800F054F900251B4B2D
:100FA80001951A6C42F080521A641B6C03F080534E
:100FB8000193019B164B02951A6842F480421A600D
:100FC8001B680F9503F480430293029B01230B9344
:100FD80010230C930823109354230224119308A878
:100FE8000423139308940E941294FFF703FC0F2321
:100FF800039321464FF4805303A804940595069360
:101008000795FFF7CBFD15B030BD00BF0038024093
:101018000070004000B58BB0FFF77EFAFFF7B2FF13
:10102800142200210DEB020000F00CF90024294BDA
:1010380001941A6B2848294D42F001021A631A6B71
:1010480002F001020192019A02941A6B42F008021E
:101058001A631B6B03F00803224602934FF4704196
:10106800029BFFF7C1FB4FF47043059305A90123C9
:101078001948069307940894FFF7D6FA14220DEB43
:101088000200214600F0DEF84FF0804385E81800A2
:1010980028463223EB6003940494AC602C61AC6165
:1010A800FFF790FE072305935023069305A90F2306
:1010B800284609930794FFF7FBFE03A928460394E3
:1010C8000494FFF71DFF2846FFF704FE2B685A6AB1
:1010D800FDE700BF00380240000C0240300000204D
:1010E80082B00C4B002100915A6C42F480425A6441
:1010F8005A6C02F480420092009A01911A6C42F0F4
:1011080080521A641B6C03F080530193019B02B058
:10111800704700BF0038024010B5044688B014225A
:10112800002103A800F08EF82368B3F1804F1FD187
:1011380003F50E33002101911A6C0E4842F00102AA
:101148001A641A6C02F001020192019A02911A6B58
:1011580042F001021A631B6B03F001030293029B26
:101168000222012303A9039304920793FFF75CFA71
:1011780008B010BD000002407047FEE7FEE7FEE73A
:10118800FEE7704770477047FFF7E0B9054BD3F8A3
:10119800882042F47002C3F888204FF000629A60F9
:1011A800704700BF00ED00E0DFF834D0002103E015
:1011B8000C4B5B58435004310B480C4B42189A4275
:1011C800F6D30B4A02E0002342F8043B094B9A424B
:1011D800F9D3FFF7DBFF00F011F8FFF71BFF7047AB
:1011E8000000022094120008000000200C000020DB
:1011F8000C00002070000020FEE7000070B50D4EC6
:101208000D4CA41BA4100025A54209D10B4E0C4C73
:1012180000F020F8A41BA4100025A54205D170BD3C
:1012280056F8253098470135EEE756F825309847A7
:101238000135F2E78C1200088C1200088C120008A5
:101248009012000802440346934200D1704703F805
:10125800011BF9E7F8B500BFF8BC08BC9E4670470B
:0C126800F8B500BFF8BC08BC9E467047FB
:101274000000000000000000010203040607080942
:0812840074EFFF7F0100000080
:04128C00AD010008A8
:0412900089010008C8
:0C12940001000000100000000024F40025
:04000005080011B12D
:00000001FF
